:400000000080002011000000C5160000C516000008B5044B1A6803F53F5302331A6001F071FB00BFFA46004010B5054C237833B9044B13B10448AFF300800123237010BD54
:400040007881FF1F00000000D83C0000084B10B51BB108490848AFF300800848036803B910BD074B002BFBD0BDE81040184700BF000000007C81FF1FD83C0000C880FF1F7A
:400080000000000010B504464FF0FF31074B186800F0E0FC48B1204601F004FC00231A4619460248006800F0BDFB10BDC402002010B504464FF0FF31074B186800F0CAFCDF
:4000C00048B1204601F0E2FB00231A4619460248006800F0A7FB10BDC402002008B50248FFF7D0FF08BD00BFE03C000010B582B04FF0FF320DF107012D4B186800F02EFC0F
:400100000128F5D19DF80730062BF1D8DFE803F0040B12223B424D00012001F0F5FB2548FFF7B0FFE4E7002001F0EEFB2248FFF7A9FFDDE701F0F4FBB0FA80F0400901F06A
:40014000E3FB01F0EDFB08B11A4800E01A48FFF799FFCDE701F0E4FB08B1184800E01848FFF790FFC4E7012001F0CEFB4FF4967000F0AEFF002001F0C7FB4FF4967000F003
:40018000A7FF013400E00024022CECDD0D48FFF779FFADE70C48FFF775FF41F2883000F097FF0A48FFF76EFFA2E7FFF797FF9FE7C0020020B83D0000C43D0000D03D0000AE
:4001C000E83D0000003E0000143E0000303E000010B50446184901F045FFF8B11749204601F040FFE0B11649204601F03BFFC8B11449204601F036FFB0B11349204601F0A1
:4002000031FF98B11149204601F02CFF80B11049204601F027FF68B9062010BD002010BD012010BD022010BD032010BD042010BD052010BD072010BD3C3E0000403E0000C5
:40024000443E00004C3E0000543E00005C3E0000643E000030B58BB0002401F001FB431EDBB2FD2B2ED80D2801D00A281FD10AAB1C44002304F8203C02A8FFF7A9FF8DF8D2
:40028000070007280BD0022300220DF107010F48006800F0C7FA0E48FFF7F4FE02E00D48FFF7F0FE0C48FFF7EDFE00240AE01E2C08D8651CEDB20AAB1C4404F8200CFFF757
:4002C000F7FE2C460A2000F003FFC6E7C00200206C3E0000843E0000A83E000000B583B062B600F03DF801F0ADFA01F0EDFA012000F028FB134B186000B9FEE70022012119
:40030000084600F075FA104B186018B90F48FFF7B9FEFEE7FFF7E2FE00240194022500952346C8220A490B4800F07CFD019400952346C8220849094800F074FD00F0A4FDC5
:40034000FEE700BFC4020020C0020020AC3E0000C83E000055020000D43E0000ED00000008B506490B2001F029FA05490E2001F025FA04490F2001F021FA08BDF1030000B3
:40038000510400009504000082B0002301934FF0A00383F31188BFF36F8FBFF34F8F019B002BFCD002B0704706480068006880F3088862B661B6BFF34F8FBFF36F8F00DFCA
:4003C00000BF000008ED00E04FF0807340F8043C21F0010140F8081C034B40F80C3C40F8202C4038704700BF8903000000000000074B19680868B0E8F00F80F30988BFF3F4
:400400006F8F4FF0000080F311884EF00D0E7047880200204FF0A00383F31188BFF36F8FBFF34F8F024A136801331360704700BFCC80FF1F034A1368013B13600BB983F389
:4004400011887047CC80FF1F0000000000000000EFF30980BFF36F8F0D4B1A6820E9F00F10602DE908404FF0A00080F3118800F049FE4FF0000080F31188BDE8084019681C
:400480000868B0E8F00F80F30988BFF36F8F70478802002008B54FF0A00383F31188BFF36F8FBFF34F8F00F027FD18B14FF08052024B1A60002383F3118808BD04ED00E0B5
:4004C000054B00221A6005490A6045F6BF51044A116007221A60704710E000E018E000E014E000E010B50B4B1A6842F460021A601A6842F060421A60FFF7E2FF0024064BAD
:400500001C60FFF751FF00F0FDFDFFF73DFF204610BD00BF20ED00E0CC80FF1F38B5044610F0070F02D020F00704083400F0DAFC104B1B682BB90F4A02F10C0323F007031E
:4005400013600D4BD3F83C391C4447F6F772944208D8A34208D2074A15681D44064BC3F83C4902E0002500E0002500F045FD284638BD00BF9481FF1F5CF8FF1F704700BFBA
:4005800000F1080343604FF0FF328260C360036100230360704700BF00230361704700BF43684B609A688A609A68516099600861036801330360704730B40D68B5F1FF3F7D
:4005C00001D1026907E000F1080200E01A4653681C68A542FAD253684B6099608A605160086103680133036030BC704703694268816891608268416851605A68904201D108
:4006000082685A60002202611A68013A1A601868704700BF436A23B1036B1868C0F1060070470020704700BF10B50446FFF7F2FEA26BE36B9A4201D1012400E00024FFF7D4
:40064000F9FE204610BD00BF10B50446FFF7E2FEA36B0BB9012400E00024FFF7EBFE204610BD00BF70B504461646856B026C3AB9036843BB806800F069FE0023A36029E0ED
:400680006EB9406801F090F96268236C13446360A268934219D32368636000201AE0C06801F082F9236C5B42E2681A44E26021688A4202D2A2681344E360022E07D145B1D6
:4006C000013D002006E0002004E0002002E0002000E000200135A56370BD00BF026C72B110B5C3681344C3608468A34201D30368C3600C46C168204601F056F910BD704793
:4007000038B50546FFF786FE95F8454064B20AE06B6A53B105F1240000F03CFD08B100F0A9FD013C64B2002CF2DCFF2385F84530FFF780FEFFF76EFE95F8444064B20AE042
:400740002B6953B105F1100000F024FD08B100F091FD013C64B2002CF2DCFF2385F84430FFF768FE38BD00BF38B504460D46FFF751FE2168E26B236C03FB0210A0600020BF
:40078000A0636160013A02FB0313E360FF2384F8443084F845307DB92369ABB104F1100000F0F8FC80B14FF08052094B1A60BFF34F8FBFF36F8F07E004F11000FFF7E0FECA
:4007C00004F12400FFF7DCFEFFF734FE012038BD04ED00E010B5029B0C4609B91B6000E01A60D8631C6401211846FFF7BDFF10BDF0B583B0054617460E4611B100FB01F07A
:4008000000E000204830FFF789FE044638B100903B4600F1480231462846FFF7DBFF204603B0F0BDF0B585B004460F4601921E460025FFF7EFFDA26BE36B9A4201D3022E17
:4008400021D1324639462046FFF70CFF636A6BB104F1240000F09EFC88B14FF08052324B1A60BFF34F8FBFF36F8F08E038B14FF080522D4B1A60BFF34F8FBFF36F8FFFF711
:40088000D9FD01204EE0019B1BB9FFF7D3FD002048E01DB902A800F0B7FC0125FFF7CAFD00F020FBFFF7B6FD94F844305BB2B3F1FF3F02D1002384F8443094F845305BB2F8
:4008C000B3F1FF3F02D1002384F84530FFF7B2FD01A902A800F0A2FCF0B92046FFF7A4FEA0B1019904F1100000F044FC2046FFF707FF00F081FB00289BD14FF080520A4B19
:400900001A60BFF34F8FBFF36F8F92E72046FFF7F7FE00F071FB8CE72046FFF7F1FE00F06BFB002005B0F0BD04ED00E048B108B5002181600160C1600B460A46FFF772FF2E
:4009400008BD704710B5024600210120FFF750FF0446FFF7EBFF204610BD00BFF0B585B004460F4601920026FFF754FDA56BC5B139462046FFF7B2FE013DA563236963B1DB
:4009800004F1100000F006FC38B14FF08052304B1A60BFF34F8FBFF36F8FFFF74BFD012053E0019B1BB9FFF745FD00204DE01EB902A800F029FC0126FFF73CFD00F092FA22
:4009C000FFF728FD94F844305BB2B3F1FF3F02D1002384F8443094F845305BB2B3F1FF3F02D1002384F84530FFF724FD01A902A800F014FCF0B92046FFF726FEA0B10199B1
:400A000004F1240000F0B6FB2046FFF779FE00F0F3FA0028A8D14FF080520D4B1A60BFF34F8FBFF36F8F9FE72046FFF769FE00F0E3FA99E72046FFF763FE00F0DDFA204608
:400A4000FFF702FE00288FD0002005B0F0BD00BF04ED00E070B584B00446019100263546FFF7D8FCA36BCBB1013BA363236813B900F0FCFCA060236963B104F1100000F0A7
:400A800089FB38B14FF080523B4B1A60BFF34F8FBFF36F8FFFF7CEFC01206BE0019B1BB9FFF7C8FC002065E01DB902A800F0ACFB0125FFF7BFFC00F015FAFFF7ABFC94F8A7
:400AC00044305BB2B3F1FF3F02D1002384F8443094F845305BB2B3F1FF3F02D1002384F84530FFF7A7FC01A902A800F097FB40BB2046FFF7A9FDF0B123683BB9FFF78AFCCE
:400B0000A06800F0BFFB0646FFF794FC019904F1240000F02FFB2046FFF7F2FD00F06CFA00289DD14FF08052134B1A60BFF34F8FBFF36F8F94E72046FFF7E2FD00F05CFA08
:400B40008EE72046FFF7DCFD00F056FA2046FFF77BFD002884D066B1FFF75CFC2046FFF759FD0146A06800F035FCFFF763FC002000E0002004B070BD04ED00E0074B9B6A36
:400B80001B6823B94FF0FF32044BDA627047034B9A6AD268D2685268DA6270479C01002010B50446006BFFF7E9FC2046FFF7E6FC10BD00BF2DE9F04781460D4617469A4631
:400BC000089EDDF824800A9C9200A521206B00F0F6FE236B07F18042013A03EB820727F0070745B90EE0E95CE21882F83410EA5C22B1013300E000230B2BF4D9002384F86F
:400C00003F3002E0002384F83430052E00D90526E662266400256564201DFFF7BDFC04F11800FFF7B9FC2461C6F10606A6616462A56484F84C50524649463846FFF7C4FB35
:400C40002060B8F1000F01D0C8F80040BDE8F08770B5002407E004EB8402930010481844FFF78EFC0134052CF5D90E4C04F1A8063046FFF785FC04F1BC052846FFF780FC2F
:400C800004F11400FFF77CFC04F1D000FFF778FC2046FFF775FCA662C4F8E45070BD00BFCC0100209C01002038B50546FFF7B2FB264BD3F8E8200132C3F8E820D3F8EC3037
:400CC0004BB9224BC3F8EC50D3F8E830012B10D1FFF7BEFF0DE01D4BD3F8F0304BB91B4BD3F8EC30DA6AEB6A9A4202D8174BC3F8EC50164CD4F8F4300133C4F8F430EB6AF5
:400D0000012202FA03F1D4F8F8200A43C4F8F82004F1300003EB83039A00291D1044FFF73FFCFFF787FBD4F8F0306BB1D4F8EC30DA6AEB6A9A4207D24FF08052044B1A600D
:400D4000BFF34F8FBFF36F8F38BD00BF9C01002004ED00E038B517E0FFF75CFB0D4CD4F8DC30DD68281DFFF741FCD4F8E830013BC4F8E830D4F8FC30013BC4F8FC30FFF7CC
:400D800059FB2846FFF70CFF024BD3F8FC30002BE2D138BD9C01002008B5FFF7DBFFFCE770B504460E461E4BD3F80051D3F8EC000430FFF71BFC60B9194BD3F8EC20D16A5D
:400DC000012202FA01F1D3F8F82022EA0102C3F8F820B4F1FF3F07D136B11148D0F8EC100431FFF7DDFB70BD2C440D4BD3F8EC305C60A54208D90A4BD3F8E400D3F8EC1030
:400E00000431FFF7D9FB70BD054DA86AD5F8EC100431FFF7D1FBEB6A9C4200D2EC6270BD9C0100202DE9F04385B006460F46154698469000FFF772FB60B181465020FFF79C
:400E40006DFB044610B1C0F8309004E04846FFF795FB00E000248CB10023039302940D9B01930C9B009343462A4639463046FFF7A1FE2046FFF718FF012001E04FF0FF3023
:400E800005B0BDE8F08300BF00B583B0114B0193002300934FF480720F491048FFF7C2FF012813D14FF0A00383F31188BFF36F8FBFF34F8F0A4B4FF0FF32DA620122C3F85F
:400EC000F0200022C3F80021FFF70CFB03B05DF804FB00BFA4020020E03E0000990D00009C010020034AD2F804310133C2F80431704700BF9C0100202DE9F0413D4BD3F89E
:400F00000431002B62D13B4BD3F800710137C3F8007167B99A6AD3F8E4109962C3F8E420D3F80C210132C3F80C21FFF727FE314BDB6A9F4205D24FF000083BE04FF001080A
:400F400001E04FF000082B4B9B6A1B6823B94FF0FF32284BDA622DE0264B9B6ADB68DC6863689F4202D2234AD36223E0261D3046FFF73CFBA36A1BB104F11800FFF736FB2E
:400F8000E36A012202FA03F11A4DD5F8F8200A43C5F8F82005F1300003EB83039A0031461044FFF7FDFAE26AD5F8EC30DB6A9A42C4D2C8E70F49D1F8EC30DB6A03EB8303E6
:400FC0009A000A44136B012B09D80AE0094AD2F810310133C2F810314FF0000801E04FF00108044BD3F814310BB14FF001084046BDE8F0819C01002070B5FFF70BFA324B3E
:40100000D3F80421013AC3F80421D3F80431002B53D12D4BD3F8E83043BB002450E02A4C236ADD6805F11800FFF7E0FA2E1D3046FFF7DCFAEB6A012202FA03F1D4F8F820AA
:401040000A43C4F8F82004F1300003EB83039A0031461044FFF7A4FAEA6AD4F8EC30DB6A9A4204D30122C4F8142100E00025164B5B69002BD3D10DB1FFF780FD124BD3F823
:40108000104164B1FFF738FF18B101220E4BC3F81421013CF6D100220B4BC3F810210A4BD3F814315BB14FF08052084B1A60BFF34F8FBFF36F8F012402E0002400E0002442
:4010C000FFF7B8F9204670BD9C01002004ED00E010B548B10446FFF705FF00212046FFF75FFEFFF789FF00E0002038B94FF08052034B1A60BFF34F8FBFF36F8F10BD00BF38
:4011000004ED00E01A4BD3F8043123B10122184BC3F81421704710B4154A0023C2F81431D2F8F830B3FA83F3DBB2C3F11F039800C418A10011444C6B64684C6302F13001FB
:401140001844820008320A44944206D1606803EB83018A0006490A445063054903EB83039A000A44536BDB68C1F8EC3010BC70479C01002010B50C46054BD3F8EC10183111
:40118000FFF71AFA01212046FFF70AFE10BD00BF9C01002038B5C368DC6804F118052846FFF724FA164BD3F80431B3B9251D2846FFF71CFAE36A012202FA03F11048D0F85D
:4011C000F8200A43C0F8F820303003EB83039A0029461044FFF7E4F903E029460948FFF7DFF9E26A064BD3F8EC30DB6A9A4204D90120034BC3F8140138BD002038BD00BFBB
:401200009C010020B0010020034BD3F80C210260D3F80031436070479C010020F8B504460D46FFF7F7F8124BD3F800116268881A2B68B3F1FF3F14D027680D4ED6F80C6113
:40124000B74201D091420ED2984206D21B1A2B602046FFF7D9FF002406E000232B60012402E0002400E00124FFF7E4F82046F8BD9C0100200122024BC3F81421704700BFE3
:401280009C010020002858D038B50346C26A2D49D1F8EC10C96A8A4246D28169002906DB2849D1F8EC10C96AC1F106018161586902EB82029100244A114488422DD11C46C5
:4012C0001D1D2846FFF792F980B9E26A02EB82018B001C490B441B6B43B9012303FA02F2D1F8F83023EA0202C1F8F8201548D0F8EC30DB6AE362012404FA03F1D0F8F82065
:401300000A43C0F8F820303003EB83039A0029461044FFF745F9204638BD0A4AD2F8EC20D26ADA62012038BD026C064BD3F8EC30DB6A9A4203D3002038BD0020704701206E
:4013400038BD00BF9C010020CC010020002838D038B50346426C013A4264C06A196C884231D092BB1C461D1D2846FFF73FF980B9E26A02EB82018B0015490B441B6B43B96C
:40138000012303FA02F2D1F8F83023EA0202C1F8F820236CE362C3F10602A261012404FA03F10B48D0F8F8200A43C0F8F820303003EB83039A0029461044FFF7F1F82046D5
:4013C00038BD00207047002038BD002038BD00BF9C010020002844D038B50346026C8A4200D20A46D96A8A423AD0586C012837D1DA629869002802DBC2F106029A615869E6
:4014000001EB81018A0017490A44904228D11C461D1D2846FFF7EAF880B9E26A02EB82018B0011490B441B6B43B9012303FA02F2D1F8F83023EA0203C1F8F830E36A012245
:4014400002FA03F10848D0F8F8200A43C0F8F820303003EB83039A0029461044FFF7A0F838BD7047CC0100209C010020064BD3F8EC302BB1044BD3F8EC20536C0133536436
:40148000014BD3F8EC0070479C010020FEE700BFF0B40022174611E050F82760F3B226F0FF0608E001EB420511F812406D78A5550132013BDBB2002BF4D10137082FEBD9FA
:4014C000F0BC7047064B1B78DBB203F00701054A11701B09013213704422034B1A707047CF0100496E5800407658004008B50A46002100F064FA08BD38B51925234B1D80DA
:40150000182202331A70022203F27E231A7008224FF040231A70032103F5007319701C4B1B78DBB21B490B701B4B1A8041F25122023B1A8000240CE0184B1B7803F0010320
:4015400043EA440404F003044FF4F07000F0F0F9013D0DB1032CEFD115B90320FFF796FF0F4B4FF480721A8007221A7000220D490A704820023108701A700222033B1A70C1
:40158000094A137843F00103137038BD8040004008010049A146004022420040254200400440004006400040A243004008B500F0FBF908BD38B572B6334A137843F00403EE
:4015C000137000240CE0314D630019194A0011462A44084691882858FFF788FF0134E4B2082CF0D900240BE02849A3001819420088188022C16B806BFFF7D8FF0134E4B283
:40160000002CF1D022494FF09040FFF741FF214A137843F0020313701032137843F0020313701D4C237843F040032370A2F58632513A137843F0100313700A2217491848AD
:40164000FFF7B4FF082217491748FFF7AFFF082216491748FFF7AAFF164A137843F008031370154D61232B70FFF746FF81232B700122124B1A70FFF725FF0E2221461048F3
:40168000FFF794FF38BD00BFE8460040E83E00002400004803500140A0430040D0020048C0510040DC02004812510040E402004822510040224300400048004004000840A8
:4016C000B043004008B500F043F903680C2B00D1FEE7FEE708B5094B1A681044084BC31AB3F5805F02DC054B186005E000F030F90C2303604FF0FF32104608BDD080FF1FC4
:40170000D002002008B5104E104D16E029686B68AC68002204E051F8040B43F8040B0432A242F8D1E868002203E0002143F8041B04328242F9D11035013E002EE6D100F059
:401740000DF9FEF7CBFDFEE7010000007C41000008B5104A104B1A60104A136843F40073136000230AE0032B03D80D4A52F8231000E00C490C4A42F8231001332F2BF2D9EA
:401780000A4B1A780A4B1A70074A0A4B1A60FFF711FF08BD0004FA050CED00E014ED00E000000000C51600000080FF1FBC760040C080FF1F08ED00E001BE704770B50446B8
:4017C0000E46074B1D680F2802D90020FFF7F4FF04F00F0455F8240045F8246070BD00BF08ED00E07222074B1A700023064A137006215F3A117047211032117051321370D1
:40180000704700BF886500408965004010B500F097F804460A4A137843F0200313700132137843F0100313700232137843F01003137000F05BF8204600F086F810BD00BFDF
:401840009865004008B5054B1B7823B9FFF7CAFF0122024B1A70FFF7D9FF08BDB4020020084B1B78DBB213F0200F06D0064A1078C0B213F01E0F02D1704700207047002017
:40188000704700BF6965004048650040034B1B7813F0040FFAD1024B187070476B6500404B65004038B5074B1B782BB938BDFFF7EDFF0134A4B201E005460024285D002854
:4018C000F5D138BDB402002008B500F039F8064B1A7842F001021A701A7802F0FE021A7000F032F808BD00BF9B650040054A137843F0010313701032137843F001031370D0
:40190000704700BFA2430040044A137803F0FD03400000F0020018431070704720510040024B1878C0F34000704700BF215100400230800803D000BF01380046FCD1704784
:40194000EFF3108072B6704780F31088704700BF014B1868704700BF3481FF1F0E4B70B51E460E4C0025E41AA410A54204D056F8253098470135F8E702F0EEFB084B094C98
:401980001E46E41AA4100025A54204D056F8253098470135F8E770BD6441000064410000644100006C41000010B5431E0A44914204D011F8014B03F8014FF8E710BD034621
:4019C0000244934202D003F8011BFAE770472DE9F04788B0149F002B1E461299B8BF03F1004327F02007B6BF1E4600232D23462F1446109DDDF84CA00B7003D0452F03D1CE
:401A0000013501E0032300E0022307AA049206AA03928DE828042246334600F0D5FB472F804602D1119BDB0728D5462F08EB050911D198F80030302B0AD100220023204603
:401A4000314602F0D9F818B9C5F10105CAF80050DAF800309944002200232046314602F0CBF808B9302202E0CDF81C9006E0079B994503D9591C07911A70F8E74046079B91
:401A8000159AC8EB0303136008B0BDE8F087034673B50029B8BF494203F8022BB4BF2D222B22092942701ADD0DF1070216460A2591FBF5F405FB1411092C01F1300102F84B
:401AC000011D2146F4DC3031541E02F8011CB4421A460AD214F8012B03F8012BF7E71A463024214402F8024B5970101A02B070BD2DE9F04F91B00C46DDF8688016461F46A0
:401B0000054601F0F9F803681846099300F0C8FA00230E93D8F800300A90073323F0070303F1080294F81890D4F800B0C8F80020D3E90023C4E91223D4F84CA0D4F8488011
:401B40002AF000430B934FF0FF32A74B40460B9902F084F8A0B94FF0FF32A34B40460B9902F05EF860B9002200234046514602F04DF810B12D2384F843309C4B9C4A0AE0DE
:401B8000424653464046514602F068F8002800F09281984B984AB9F1470F8CBF90469846032323612BF0040323604FF0000A3DE0B9F1670F00F08A81B9F1470F00F08681DF
:401BC00023600193636800210DF13302059002920093424653460691CDF81090CDF80CE02846FFF7F4FE09F0DF03472B804600F08481B9F1650F0D9900F28D8101394A4639
:401C000004F150000D91FFF742FF0E9A82468318012A236100F37C812268D10700F178819DF8333013B12D2384F84330009733460FAA2146284600F09FF9013002D14FF030
:401C4000FF3096E123685A0501D4236965E0B9F1650F40F2D580D4E912010022002301F0CBFF78B30123654A31462846B8470130E5D00E9B0D9A9A420BDB2368D80708D499
:401C800023689B0740F111814FF0000804F1190906E10A9B099A31462846B8470130CED04FF0000804F11A090E9B013B9845E7DA01234A4631462846B8470130BFD008F1C1
:401CC0000108F1E70D9B002B29DC01234B4A31462846B8470130B2D00D9B23B90E9B13B92368D907CCD50A9B099A31462846B8470130A4D04FF0000904F11A0A0D9B5B425F
:401D0000994509DA0123524631462846B847013095D009F10109F1E70E9B4246A7E00E9AA36D9A42A8BF1A46002A914606DC4FF0000A29EAE97904F11A0B11E01346314641
:401D400042462846B8470130F1D178E701235A4631462846B84701303FF471AF0AF1010AA36DC9EB03029245F0DB08EB03090D9A0E9B9A420FDB2368DA070CD40E9B0D9ACE
:401D80009844C9EB08089B1A9845A8BF9846B8F1000F08DC0FE00A9B099A31462846B8470130EBD14BE743464A4631462846B84701303FF444AF4FF0000928EAE87804F1D3
:401DC0001A0A09E00123524631462846B84701303FF435AF09F101090D9A0E9B9B1AC8EB03039945EEDB4BE7FFFFEF7F2C3F0000303F0000343F0000383F00003C3F0000A8
:401E00000E9A012A01DCDB0738D50123424631462846B84701303FF412AF0A9B099A31462846B84701303FF40AAFD4E912010022002301F0E1FE20B14FF0000804F11A09F0
:401E40000EE00E9B08F10102013B19E001234A4631462846B84701303FF4F1AE08F101080E9B013B9845F1DB534604F1500231462846B84701307FF403AFE0E642460123E3
:401E800031462846B8470130EED1D8E601234A4631462846B84701303FF4D1AE08F10108E3680F9A9B1A9845F0DBE0680F9B9842B8BF18465DE062680EA8531C0DF1340EB5
:401EC0004BF480637FF474AE062201E012B90122626075E6002106910DF133018DE80C00236005904246CDF81090CDF80CE0029153462846FFF76BFD80460D9BD81C02DBBF
:401F0000626893421DDDA9F102095FFA89F970E60133236184E6B9F1660F14D10029636807DD216113B92268D2071DD501330B4419E013B92268D00701D5023313E00123C6
:401F400011E04FF067090D9B0E9A934205DB22682361D10708D5013305E0002BD4BFC3F102030123134423610D9B4FF0000AA36556E611B0BDE8F08F2DE9F04791461F46C7
:401F80000A698B6806469342B8BF1346C9F8003091F843200C46DDF8208012B10133C9F800302368990642BFD9F800300233C9F80030256815F0060510D104F1190A07E06F
:401FC0000123524639463046C04701301AD00135E368D9F800209B1A9D42F1DB94F843302268003318BF012392060FD5E118302081F843005A1C94F845102244023382F898
:40200000431003E04FF0FF30BDE8F08704F1430239463046C0470130F4D02268D9F80050E36802F00602042A08BF5D1B2269A3680CBF25EAE57500259342C4BF9B1AED1857
:402040004FF000091A344D4509D00123224639463046C0470130D5D009F10109F3E70020BDE8F0870D4B30B51D6810F8013BEA18527802F00302012A11F8012B08BF2033A4
:40208000AC18647804F00304012C08BF20329B1A01D1002AE9D1184630BD00BF3881FF1F034613F8012B002AFBD1181A013870472DE9F74F03690C6980469C427FDC013CE2
:4020C00001F114074FEA840E00F1140606EB0E0357F82450019356F824300135B3FBF5F507EB0E09C5B34FF0000A3846B446D34650F8043B9AB205FB02A21B0C4FEA124AA6
:4021000005FB03A392B2C2EB0B0BBCF800204FEA134A5A441FFA83FBDCF800308145CBEB134303EB224392B242EA03424FEA234B4CF8042BDCD256F80E306BB9019B043B22
:402140009E421A4602D3C8F8104005E01268043B002AF8D1013CF3E7404600F0E6FF00282BDB304601354FF0000E57F8042B036891B2C1EB0E0E120C99B27144C2EB1343FB
:4021800003EB214389B24FEA234EB94541EA034340F8043BE9D256F8242006EB840362B9043B9E421A4602D3C8F8104005E01268043B002AF8D1013CF3E7284600E00020A8
:4021C00003B0BDE8F08F00002DE9F04F456A95B08246219CCDE9022345B9102000F090FDCAF82400456085600560C560DAF82430196859B15A68012393404A608B60504625
:4022000000F0BBFDDAF8243000221A60039BA04A002BBDBF01232360039B0023BCBF23F000430393DDF80C80A8BF236028F000431B0D1B0593421DD142F20F73209A1360A2
:40224000029B43B9934A944BC8F31300002814BF1846104600E09048229B002B00F04685C37813B100F1080300E0C31C229A136000F03CBDDDE90245002200232046294638
:4022800001F0BAFC074658B1209A01231360229B002B00F01E8581481860013800F026BD12AB019313AB009322462B46504600F0B7FFC8F30A56049056B1C5F3130343F09A
:4022C0007F51204641F44011A6F2FF3611971DE0139B129E1E4406F23243202B0ADD029A06F21240C3F1400322FA00F008FA03F3184304E0C3F12000029B03FA00F001F0E2
:402300009DF90123A1F1F871013E11930022644B01F056F858A3D3E9002301F005FA58A3D3E9002301F04EF8044630460D4601F095F955A3D3E9002301F0F6F902460B4638
:402340002046294601F03EF804460D4601F09CFC0022834600232046294601F057FC58B1584601F07BF902460B462046294601F043FC08B90BF1FF3BBBF1160F0DD8DDE9F7
:402380000223484901EBCB01D1E9000101F05CFC30B10BF1FF3B002300E00123109300E01090129B9E1B731E079343BFC3F10008002307934FF00008BBF1000F06DB079BB9
:4023C000CDF82CB05B440793002705E00023CBEB0808CBF100070B931E9B092B28D8052BC4BF043B1E931E9BC8BF0025A3F10203D8BF0125032B20D8DFE803F0060E020468
:40240000012302E0012308E000230A931F9B002B1DDD9946059321E000230A931F9B0BEB030909F10103012B0593B8BF012315E0012500231E930A9501E001230A934FF02B
:40244000FF390022CDF8149012231F9206E04FF001094B46CDF81490CDF87C90DAF8244000226260042101F114029A421CD86268490001326260F6E761436F63A787D23F08
:40248000B3C8608B288AC63FFB799F501344D33F0000F07F3F400000484000003D3F00000000F83F584000006168504600F030FCDAF8243020601B680693059B0E2B00F26A
:4024C0005B81002D00F05881DDE90234BBF1000FCDE90E3430DD9F4A0BF00F034FEA2B1502EBC303E80618CBCDE908340CD5DDE90E01994B05F00F05D3E9082301F03EFAB6
:402500000324CDE9020100E00224934E6DB1E90708D5DDE90801D6E9002301F005F9CDE9080101346D100836F0E7DDE90823DDE9020101F023FA20E0CBF1000505B3DDE9BC
:402540000E01844B05F00F0203EBC203D3E9002301F0EAF8CDE902017F4E2D110023022455B1EA0705D5D6E9002301F0DDF8013401236D100836F3E71BB1CDE9020100E039
:402580000224109BE3B1DDE902560022734B2846314601F03BFB98B1059B8BB1B9F1000F40F3E6800BF1FF330893314600226C4B284601F0B9F80134CDE902014E4602E0A8
:4025C000059ECDF820B0204601F048F8DDE9022301F0AAF8634B002200F0F4FEA1F1507304460C931D46D6B9DDE9020100225E4B00F0E6FE22460C9BCDE9020101F024FB6C
:40260000002840F03F820C99224601F10043DDE9020101F0FBFA002840F02B82A8E00A9A4C4B711E002A49D003EBC103D3E9002300204E4901F0A2F922462B4600F0C0FE9B
:40264000CDE90C01069CDDE9020101F01DFB054601F004F802460B46DDE9020100F0B0FEDDE90C23303504F8015BCDE9020101F0CDFA002840F01D83DDE902230020374945
:4026800000F09EFEDDE90C2301F0C0FA002840F0D180069BE31AB3426ADADDE90C0100222F4B01F041F80022CDE90C01DDE902012B4B01F039F8CDE90201C4E703EBC1017B
:4026C0002246D1E900012B4601F02EF8069BCDE90C011D469C19DDE9020101F0D5FA064600F0BCFF02460B46DDE9020100F068FE303605F8016BAC42CDE902014FF00002C4
:4027000022D11A4BDDE90C0100F05CFE02460B46DDE9020101F098FA002840F08B80DDE90C230020114900F04BFE02460B46DDE9020101F06BFAD8B114F8013C621E302BCF
:4027400040F0B7821446F7E7054B00F0EDFFCDE90201C0E758400000304100000000F03F0000244000001C40000014400000E03FDDE90E34CDE90234139B002B7CDBBBF1F1
:402780000E0F79DCAB4B03EBCB03D3E900671F9B002B14DA059B002B11DC40F06C810022A54B3046394600F0BFFFDDE9022301F041FA059D2E46002840F05F8165E1069C28
:4027C000DDE9028932463B464046494601F0D6F801F05AFA054600F041FF32463B4600F0A3FF0B4602464946404600F0E9FD05F1300E069B04F801EBC3EB040E059B734517
:402800002DD102460B4600F0DDFD8046894602460B463046394601F0F9F978B942464B463046394601F0E8F9002800F04482EB0704D440E2DDF820B000E01C4614F8012C36
:40284000631E392A07D1069A9A42F6D1069930220BF1010B0A701A7801321A702BE20022764B00F061FF002200238046894601F0C3F90028A6D01EE20A9A002A2BD01E9AB1
:40288000012A0ADC119A12B103F2334302E0129BC3F136033D46444613E0059B5D1EAF42BFBF0B9BEA1B9B180B93059BB6BF2F467D1B0025002BA7BF4446059BC3EB080470
:4028C0000023079A01211A4450469844079200F0F3FA064602E03D4644460A9E5CB1079B002B08DDA342A8BF2346079AC3EB0808E41AD31A0793002F1DDD0A9BABB18DB109
:4029000031462A46504600F071FB049A01460646504600F0DAFA04990890504600F02DFA089B04937A1B06D000E03A460499504600F05CFB04900121504600F0BDFA0B9B39
:4029400005465BB31A460146504600F04FFB1E9B0546012B18DC029B83B9039BC3F3130373B9039B23F000473F0D3F054FB1079B08F1010801330793012702E0002700E0E9
:40298000029F0B9B73B100E000272B6905EB8303186900F044FAC0F1200004E01E9B012BD9DD0B9F0120079B184410F01F0008D0C0F12003042B02DDC0F11C0002E006D075
:4029C00018461C30079B8044034404440793B8F1000F05DD42460499504600F055FB0490079B002B05DD29461A46504600F04CFB0546109B23B32946049800F096FB0028AA
:402A00001EDA00230A220499504600F0CDF90A9B0BF1FF3B0490002B00F05F81314600230A22504600F0C0F9B9F1000F06463FDC3BE000BF584000000000144000002440AD
:402A4000059B002B2BDC1E9B022B28DDDDF81490B9F1000F11D129464B460522504600F0A3F901460546049800F05FFB00280CDC03E0354600E000252E461F9B069C6FEA28
:402A8000030B09E03546DDF820B0069B069A5C1C312313700BF1010B05960026F7E00A9BDDF8149023B9069CB2E01E9B022BCFDC002C05DD31462246504600F0E5FA064672
:402AC0009FB17168504600F023F90446326906F10C01023292000C30FEF766FF01222146504600F0D1FA059000E00596029B069F03F00103079329460498FFF7D9FA3146BD
:402B0000044600F13008049800F00FFB059A02902946504600F025FBC36802463BB901460A90049800F001FB0A9A034600E00123114650460A9300F020F90A9B53B91E9A89
:402B400042B9079A32B9B8F1390F2AD0029B002B1CDC1DE0029A002A04DB1BD11E9ACAB9079ABAB9002B13DD01220499504600F08BFA2946049000F0D8FA002803DC07D1BC
:402B800018F0010F04D0B8F1390F0AD004F131087C1C0CE0002B07F101040BDDB8F1390F03D139233B70013756E008F1010887F800806CE0069B2746E31A4B4504F8018CF1
:402BC0003BD000230A220499504600F0EDF8059B04909E424FF00A024FF000033146504604D100F0E1F80646059084E700F0DCF8002306460A220599504600F0D5F80590F6
:402C000079E700230A220499504600F0CDF8049029460498FFF74CFA069B00F1300804F8018BE31A4B45ECDB069B0596B9F1010FACBF4B4401331F46002601220499504677
:402C400000F022FA2946049000F06FFA002803DC15D118F0010F12D03C4614F8013C621E392B09D1069B934204D10BF1010B3123069A02E01446F0E70133137007E03C4602
:402C800014F8013C621E302B01D11446F8E72946504600F072F8059B6BB12EB19E4203D03146504600F069F80599504600F065F801E0DDF820B00499504600F05EF8002337
:402CC000209A23700BF101031360229B1BB11C6001E008480AE0069808E0B9F1000F3FF7E2AE1E9B022B7FF7DEAEB1E615B0BDE8F08F00BF3C3F0000004870473C81FF1F73
:402D0000024B0146186800F0E7BA00BF3481FF1F70B5456A04460E463DB91020FFF7F0FF6062456085600560C560656AEB6843B1636ADB6853F8260078B1026843F826205E
:402D400017E021220421204600F0B8FA636AE860DB68002BECD1002070BD012101FA06F56A1D9200204600F0A9FA0028F3D04660856000230361C36070BD70B5446A0646C9
:402D80000D463CB91020FFF7BBFF7062446084600460C4603DB1736A6A68DB6853F82210296043F8225070BD2DE9F04106460C460D691F4601F1140E0023DEF80000013348
:402DC00081B202FB0171000C0F0C02FB007089B201EB00419D424FEA10474EF8041BECDCD7B1A3689D4212DB616830460131FFF78FFF8046226904F10C01023292000C30F0
:402E0000FEF7D2FD21463046FFF7B7FF444604EB850301355F6125612046BDE8F081030C1B0413B90004102300E0002310F07F4F04BF0002083310F0704F04BF0001043390
:402E400010F0404F04BF80000233002803DB420003D5581C70471846704720207047036813F007020BD0D90722D49A074BBF5B089B08036003604CBF01200220704799B205
:402E800009B91B0C102213F0FF0F04BF1B0A0832190704BF1B090432990704BF9B080232D90702D45B0805D00132036010467047002070472020704710B50C460121FFF7BF
:402EC00027FF01224461026110BD2DE9F74F14460A69236988469A42BEBF0B46A0461C46D8F81070D4F81090D8F80830D8F8041007EB09069E42C8BF0131FFF709FF00F10E
:402F000014052B4605EB860C0022634502D243F8042BFAE704F1140208F1140102EB890301EB87070093009B0192934257D9B2F800B0BBF1000F23D08946AE464FF00008B8
:402F400059F8044BBEF800A0A3B20BFB03A34FEA144ADEF8004043444FEA14480BFB0A84F24604EB13449BB243EA04434F454FEA14484AF8043B01D9D646E1E7CEF804800C
:402F8000019B0432B3F802A0BAF1000F21D02C4689462B684FF00008B9F800E0B4F802B09BB20AFB0EBEA346F04443EA08434BF8043B59F8043BB4F804E01B0C0AFB03E3D6
:402FC0004F4503EB18434FEA134801D95C46E3E763600435A7E75CF8043D13B9013E002EF9DC066103B0BDE8F08F00002DE9F843154612F0030206460F4607D0214C013ADC
:40300000002354F82220FFF7CFFE0746AD1036D0746A3CB91020FFF773FE7062446084600460C460D6F82480D8F808404CB940F271213046FFF740FF04460023C8F808008D
:4030400003604FF00008EB070AD5394622463046FFF73BFF814639463046FFF78EFE4F466D100CD0206808B10446ECE7224621463046FFF72AFF2060C0F80080F4E7384649
:40308000BDE8F883204100002DE9F0470C460746914626694FEA621A56444968A368751CAB4202DA01315B00FAE73846FFF730FE002380461A4600F11401534503DA41F8CB
:4030C00023200133F9E72AEAEA73206901EB830319F01F0904F1140101EB800E14D0C9F1200C002208689A4600FA09F0024343F8042B51F8042B8E4522FA0CF2F2D8CAF889
:40310000042042B1B51C06E0043B51F8042B8E4543F8042FF9D8013D3846C8F810502146FFF72BFE4046BDE8F08703690A6910B59B1A11D192001430143183180A4453F86A
:40314000044D52F8041D8C4202D007D3012010BD9842F4D3002010BD184610BD4FF0FF3010BD2DE9F8430C460746114620461546FFF7DBFF061E08D131463846FFF7C8FDB2
:40318000012303614661BDE8F883BCBF23462C4638466168BABF1D4601260026FFF7B8FD2B69C660266905F1140904F1140101EB860709EB830800F114054FF0000C51F853
:4031C000042B59F8044B93B29C44A3B2240CC3EB0C03C4EB124202EB23429BB24FEA224CC84543EA02428E4645F8042BE7D8BE450ED25EF8041B8AB26244131403EB114330
:4032000092B242EA03424FEA234C45F8042BEEE755F8043D0BB9013EFAE70661BDE8F8832DE9F3411C4601219046089E099DFFF76FFDC4F31302C4F30A5407460CB142F484
:4032400080120192B8F1000F19D002A840F8088DFFF705FE009B48B1019AC0F1200102FA01F10B43C2407B61019200E07B61019B002B14BF02210121BB61396107E001A889
:40328000FFF7EDFD019B01217B613961203034B1A4F2334404443460C0F1350009E0A0F2324007EB810330601869FFF7B8FDC0EB41102860384602B0BDE8F08138B502FB23
:4032C00001F4214600F008F8054618B122460021FEF775FB284638BD70B5CD1C25F0030508350C2D38BF0C25002D064601DBA94202D90C23336046E000F05CF8234B1C681B
:403300001A462146A1B10B685B1B0ED40B2B03D90B60CC18CD501EE08C420BBF63684B681360636018BF0C4615E00C464968E9E7174C23681BB9304600F02CF820602946B5
:40334000304600F027F8431C18D0C41C24F00304A0420DD12560304600F02DF804F10B00231D20F00700C31A0ED05A42E25070BD211A304600F00EF80130EBD10C23336053
:40338000304600F018F8002070BD00BFBC020020B802002038B5064C0023054608462360FEF798F9431C02D1236803B12B6038BDC80200207047704781F0004102E000BF33
:4033C00083F0004330B54FEA41044FEA430594EA050F08BF90EA020F1FBF54EA000C55EA020C7FEA645C7FEA655C00F0E2804FEA5454D4EB5555B8BF6D420CDD2C4480EA02
:40340000020281EA030382EA000083EA010180EA020281EA0303362D88BF30BD11F0004F4FEA01314FF4801C4CEA113102D0404261EB410113F0004F4FEA03334CEA133395
:4034400002D0524263EB430394EA050F00F0A780A4F10104D5F1200E0DDB02FA0EFC22FA05F2801841F1000103FA0EF2801843FA05F359410EE0A5F120050EF1200E012AEA
:4034800003FA0EFC28BF4CF0020C43FA05F3C01851EBE37101F0004507D54FF0000EDCF1000C7EEB00006EEB0101B1F5801F1BD3B1F5001F0CD349085FEA30004FEA3C0C19
:4034C00004F101044FEA445212F5800F80F09A80BCF1004F08BF5FEA500C50F1000041EB045141EA050130BD5FEA4C0C404141EB010111F4801FA4F10104E9D191F0000FC3
:4035000004BF01460020B1FA81F308BF2033A3F10B03B3F120020CDA0C3208DD02F1140CC2F10C0201FA0CF021FA02F10CE002F11402D8BFC2F1200C01FA02F120FA0CFC63
:40354000DCBF41EA0C019040E41AA2BF01EB0451294330BD6FEA04041F3C1CDA0C340EDC04F11404C4F1200220FA04F001FA02F340EA030021FA04F345EA030130BDC4F1DD
:403580000C04C4F1200220FA02F001FA04F340EA0300294630BD21FA04F0294630BD94F0000F83F4801306BF81F480110134013D4EE77FEA645C18BF7FEA655C29D094EA81
:4035C000050F08BF90EA020F05D054EA000C04BF1946104630BD91EA030F1EBF0021002030BD5FEA545C05D14000494128BF41F0004130BD14F580043CBF01F5801130BD6E
:4036000001F0004545F0FE4141F470014FF0000030BD7FEA645C1ABF194610467FEA655C1CBF0B46024650EA013406BF52EA033591EA030F41F4002130BD00BF90F0000FF3
:4036400004BF0021704730B54FF4806404F132044FF000054FF0000150E700BF90F0000F04BF0021704730B54FF4806404F1320410F0004548BF40424FF000013EE700BFAB
:4036800042004FEAE2014FEA31014FEA02701FBF12F07F4393F07F4F81F06051704792F0000F14BF93F07F4F704730B54FF4607401F0004521F0004120E700BF50EA0102D7
:4036C00008BF704730B54FF000050AE050EA010208BF704730B511F0004502D5404261EB41014FF4806404F132045FEA915C3FF4DCAE4FF003025FEADC0C18BF03325FEA5D
:40370000DC0C18BF033202EBDC02C2F1200300FA03FC20FA02F001FA03FE40EA0E0021FA02F11444C1E600BF70B54FF0FF0C4CF4E06C1CEA11541DBF1CEA135594EA0C0FA6
:4037400095EA0C0F00F0DEF82C4481EA030621EA4C5123EA4C5350EA013518BF52EA033541F4801143F4801338D0A0FB02CE4FF00005E1FB02E506F00042E0FB03E54FF0B2
:403780000006E1FB03569CF0000F18BF4EF0010EA4F1FF04B6F5007F64F5407404D25FEA4E0E6D4146EB060642EAC62141EA55514FEAC52040EA5E504FEACE2EB4F1FD0C1D
:4037C00088BFBCF5E06F1ED8BEF1004F08BF5FEA500E50F1000041EB045170BD06F0004646EA010140EA020081EA0301B4EB5C04C2BFD4EB0C0541EA045170BD41F4801165
:403800004FF0000E013C00F3AB8014F1360FDEBF002001F0004170BDC4F10004203C35DA0C341BDC04F11404C4F1200500FA05F320FA04F001FA05F240EA020001F00042E7
:4038400021F0004110EBD37021FA04F642EB06015EEA430E08BF20EAD37070BDC4F10C04C4F1200500FA04F320FA05F001FA04F240EA020001F0004110EBD37041F1000136
:403880005EEA430E08BF20EAD37070BDC4F1200500FA05F24EEA020E20FA04F301FA05F243EA020321FA04F001F0004121FA04F220EA020000EBD3705EEA430E08BF20EAF0
:4038C000D37070BD94F0000F0FD101F00046400041EB010111F4801F08BF013CF7D041EA060195F0000F18BF704703F00046520043EB030313F4801F08BF013DF7D043EA1F
:403900000603704794EA0C0F0CEA135518BF95EA0C0F0CD050EA410618BF52EA4306D1D181EA030101F000414FF0000070BD50EA410606BF1046194652EA430619D094EA10
:403940000C0F02D150EA013613D195EA0C0F05D152EA03361CBF104619460AD181EA030101F0004141F0FE4141F470014FF0000070BD41F0FE4141F4780170BD70B54FF0E2
:40398000FF0C4CF4E06C1CEA11541DBF1CEA135594EA0C0F95EA0C0F00F0A7F8A4EB050481EA030E52EA03354FEA013100F088804FEA03334FF0805545EA131343EA126394
:4039C0004FEA022245EA111545EA10654FEA00260EF000419D4208BF964244F1FD0404F5407402D25B084FEA3202B61A65EB03055B084FEA32024FF480104FF4002CB6EBF3
:403A0000020E75EB030E22BFB61A754640EA0C005B084FEA3202B6EB020E75EB030E22BFB61A754640EA5C005B084FEA3202B6EB020E75EB030E22BFB61A754640EA9C005B
:403A40005B084FEA3202B6EB020E75EB030E22BFB61A754640EADC0055EA060E18D04FEA051545EA16754FEA06164FEAC30343EA52734FEAC2025FEA1C1CC0D111F4801FA1
:403A80000BD141EA00014FF000004FF0004CB6E711F4801F04BF01430020B4F1FD0C88BFBCF5E06F3FF6AFAEB5EB030C04BFB6EB020C5FEA500C50F1000041EB045170BD90
:403AC0000EF0004E4EEA113114EB5C04C2BFD4EB0C0541EA045170BD41F480114FF0000E013C90E645EA060E8DE60CEA135594EA0C0F08BF95EA0C0F3FF43BAF94EA0C0F19
:403B00000AD150EA01347FF434AF95EA0C0F7FF425AF104619462CE795EA0C0F06D152EA03353FF4FDAE1046194622E750EA410618BF52EA43067FF4C5AE50EA41047FF406
:403B40000DAF52EA43057FF4EBAE12E74FF0FF3C06E000BF4FF0010C02E000BF4FF0010C4DF804CD4FEA410C7FEA6C5C4FEA430C18BF7FEA6C5C1BD001B050EA410C0CBF5D
:403B800052EA430C91EA030F02BF90EA020F0020704710F1000F91EA030F58BF994208BF90422CBFD8176FEAE37040F0010070474FEA410C7FEA6C5C02D150EA013C07D15B
:403BC0004FEA430C7FEA6C5CD6D152EA033CD3D05DF8040B704700BF8446104662468C461946634600E000BF01B5FFF7B7FF002848BF10F1000F01BD4DF808EDFFF7F4FFAA
:403C00000CBF012000205DF808FB00BF4DF808EDFFF7EAFF34BF012000205DF808FB00BF4DF808EDFFF7E0FF94BF012000205DF808FB00BF4DF808EDFFF7CEFF94BF0120D2
:403C400000205DF808FB00BF4DF808EDFFF7C4FF34BF012000205DF808FB00BF4FEA410C7FEA6C5C02D150EA013C0AD14FEA430C7FEA6C5C02D152EA033C02D14FF00000DA
:403C800070474FF0010070474FEA410212F5001215D211D56FF47873B3EB625212D94FEAC12343F0004343EA505311F0004F23FA02F018BF404270474FF00000704750EA67
:403CC000013005D111F0004008BF6FF0004070474FF00000704700BF00000000000000000D0A417661696C61626C6520436F6D6D616E64733A0D0A6F6E20202020202D20A5
:403D00005475726E204C4544204F4E0D0A6F6666202020202D205475726E204C4544204F46460D0A746F67676C65202D20546F67676C65204C45442073746174650D0A7348
:403D40007461747573202D2053686F77204C45442073746174650D0A626C696E6B20202D20426C696E6B204C454420332074696D65730D0A736C65657020202D20506175BD
:403D8000736520666F722035207365636F6E64730D0A68656C702020202D2053686F7720746869732068656C70206D6573736167650D0A3E200000004C4544204F4E0D0A8E
:403DC000000000004C4544204F46460D0A0000004C45442069732063757272656E746C79204F4E0D0A0000004C45442069732063757272656E746C79204F46460D0A000044
:403E0000426C696E6B656420332074696D65730D0A000000536C656570696E6720666F722035207365636F6E64732E2E2E0D0A00576F6B652075700D0A0000006F6E0000EB
:403E40006F666600746F67676C6500007374617475730000626C696E6B000000736C65657000000068656C70000000000D0A436F6D6D616E642072656365697665640D0ABB
:403E8000000000000D0A496E76616C696420636F6D6D616E642E2054797065202768656C70270D0A000000003E2000004661696C656420746F20637265617465206D616976
:403EC0006C626F780D0A000055415254205461736B0000004C4544205461736B0000000049444C4500000000005100401000305100404000F05100401000000001400010DD
:403F000000140140000480180140800300400140000A004C014000020050014020000000001801405002004880004300494E4600696E66004E414E006E616E0030000020C7
:403F40002020202020202020282828282820202020202020202020202020202020202088101010101010101010101010101010040404040404040404041010101010101029
:403F800041414141414101010101010101010101010101010101010101011010101010104242424242420202020202020202020202020202020202020202101010102000F3
:403FC00000000000000000000000000000000000000000000000000000000000000000000000000000000000000000000000000000000000000000000000000000000000C1
:404000000000000000000000000000000000000000000000000000000000000000000000000000000000000000000000000000000000000000000000000000000000004937
:404040006E66696E697479004E614E00504F534958002E0000000000000000000000F03F000000000000244000000000000059400000000000408F40000000000088C340BB
:4040800000000000006AF8400000000080842E4100000000D01263410000000084D797410000000065CDCD41000000205FA00242000000E876483742000000A2941A6D4271
:4040C000000040E59C30A2420000901EC4BCD64200003426F56B0C430080E03779C3414300A0D8855734764300C84E676DC1AB43003D9160E458E143408CB5781DAF1544BF
:4041000050EFE2D6E41A4B4492D54D06CFF08044F64AE1C7022DB544B49DD9794378EA4405000000190000007D000000000000000080E03779C34143176E05B5B5B89346AB
:40414000F5F93FE9034F384D321D30F94877825A3CBF737FDD4F1575F8B500BFF8BC08BC9E4670474D00000051170000F8B500BFF8BC08BC9E4670472900000090410000EF
:40418000C880FF1FB0000000588100000000000000000000AAAAAAAAD002002000000000000000000000000000000000000000000000000000000000000000002A3F00000D
:4041C000000000000000000000000000000000000000000000000000000000000000000000000000000000000000000000000000000000000000000000000000D480FF1F4D
:404200003E3F000052400000534000005340000053400000534000005340000053400000534000005340000053400000FFFFFFFFFFFFFFFFFFFFFFFFFFFF00000000000052
:40424000000000000000000000000000000000000000000000000000000000000000000000000000000000000000000000000000000000000000000000000000000000003E
:4042800000000000000000000000000000000000000000000000000000000000000000000000000000000000000000000000000000000000000000000000000000000000FE
:4042C00000000000000000000000000000000000000000000000000000000000000000000000000000000000000000000000000000000000000000000000000000000000BE
:40430000000000000000000000000000000000000000000000000000000000000000000000000000000000000000000000000000000000000000000000000000000000007D
:020000040003F7
:0200000480007A
:400000000252004003650040141801403A190140691A01404F1B0140014C0140074D01400250014061806440887289388B0F800886048801A101A202A401AA02AC01B002F3
:40004000B204B401B501B608BE41BF10D418D804D904DB04DF01010A0308052906020C410D020E0A0F2010221248168017141A011B151C101D211E0A1F102308250A26089F
:4000800027012B402C412D202F10354137143D803E823F284440452847404F20550156405B015C10600463026C226E046F08760277148601C0FEC2F0C47FCAF1CCF0CEF0C2
:4000C000D0F0D220D621D80CE00802030410060C070808100C090D800E100F131220152C16201743180C19711A111B06230C24142571270E281C2A02301F31C0330F3420E2
:40010000353039223B083E103F104002450449FF4A074BFF4C404D204EF04F055008580459045A045F01604061A862406320814882358334844A85F8863488138A2C8D204F
:400140008E488FC293019501980399909A149B2CA101A413A664A9F8AA40AF01B010B106B268B301B40FB518B7E0B908BA28BE01BF01C024C103C50CC6CEC70BC81DC9FF3D
:40018000CAFFCBFFCEF0CF44D00CD401D804D904DA04DB04DF01E6C0EA40EB020060010203100440051006410720082009090F081108132014201604180419021D141E4029
:4001C0002040211022042320254826102740282029042A012C412F083110320433103521361438803A043B043D803E06411044204640471048104B044F085040524055041C
:4002000057505D015E405F18633079017B4089488A0292049404984199019B089D6A9F40A101A204A308A540A740C0FFC24EC466CAB3CCE6CEDAD0E4D6F0871010407310E2
:4002400088409310C408DC01E20110011C0100001F10200001000004020000E308C000001C1C23E10008230033180C003F44000003FF000004E700180C800000003C00C288
:400280002C1F10380F0000C00000A202000004002604030001000CE024FFFFFF62A0F0410C00000000000211040404040000000100000000000040020010301000101012D2
:4002C00000000000000000000000000000000000800040808000800000000000000B0B000000000000020200000000000000000000000000000000000000000000000000A4
:4003000000000000000000000000000000000000000000000000000000000000000000000000000000000000000000000000000000000000000000000000000000000000BD
:40034000000000000000000000000000000000000000000000000000000000000000000000000000000000000000000000000000000000000000000000000000000000007D
:40038000000000000000000000000000000000000000000000000000000000000000000000000000000000000000000000000000000000000000000000000000000000003D
:4003C00000000000000000000000000000000000000000000000000000000000000000000000000000000000000000000000000000000000000000000000000000000000FD
:0200000490006A
:0400000000004005B7
:0200000490105A
:04000000BC90ACAF55
:0200000490303A
:02000000CAC371
:0200000490402A
:4000000000000000000000000000000000000000000000000000000000000000000000000000000000000000000000000000000000000000000000000000000000000000C0
:400040000000000000000000000000000000000000000000000000000000000000000000000000000000000000000000000000000000000000000000000000000000000080
:400080000000000000000000000000000000000000000000000000000000000000000000000000000000000000000000000000000000000000000000000000000000000040
:4000C0000000000000000000000000000000000000000000000000000000000000000000000000000000000000000000000000000000000000000000000000000000000000
:0200000490501A
:0C00000000012E16106900012E30DB2CD0
:00000001FF